:0400000002001132B7
:03000B0002042FBD
:10006A00750800750901750A00750B00750C007595
:08007A000D00750E0002000EDE
:03000E00020522C6
:10008200E582FF24F6500122EF2F2F900091730298
:1000920000AF0200E30201190201500201860201CF
:1000A200BC0201F302022802025F020293AD15AE06
:1000B20016AF178D828E838FF0E4120536042DFA67
:1000C200E43EFB8F048A828B838CF0740E12053619
:1000D20074022DFDE43EFE8D828E838FF0E40205D4
:1000E20036AD15AE16AF178D828E838FF0741B124C
:1000F200053674012DFAE43EFB8F048A828B838CD1
:10010200F0741D12053674022DFDE43EFE8D828EC2
:10011200838FF0E4020536AD15AE16AF178D828ED1
:10012200838FF0740412053674012DFAE43EFB8FBE
:10013200048A828B838CF0740A12053674022DFDB8
:10014200E43EFE8D828E838FF07408020536AD1573
:10015200AE16AF178D828E838FF0740A1205367435
:10016200012DFAE43EFB8F048A828B838CF0740AA1
:1001720012053674022DFDE43EFE8D828E838FF0D1
:10018200E4020536AD15AE16AF178D828E838FF061
:10019200741812053674012DFAE43EFB8F048A822C
:1001A2008B838CF0741B12053674022DFDE43EFE27
:1001B2008D828E838FF0E4020536AD15AE16AF1731
:1001C2008D828E838FF0740812053674012DFAE445
:1001D2003EFB8F048A828B838CF0740A120536747C
:1001E200022DFDE43EFE8D828E838FF074020205A5
:1001F20036AD15AE16AF178D828E838FF0E41205E1
:1002020036042DFAE43EFB8F048A828B838CF074D1
:100212000A12053674022DFDE43EFE8D828E838F16
:10022200F07402020536AD15AE16AF178D828E83BD
:100232008FF0740612053674012DFAE43EFB8F042A
:100242008A828B838CF0741A12053674022DFDE4B7
:100252003EFE8D828E838FF0741C020536AD15AE84
:1002620016AF178D828E838FF0E4120536042DFAB5
:10027200E43EFB8F048A828B838CF0740A1205366B
:1002820074022DFDE43EFE8D828E838FF0E4020522
:1002920036AD15AE16AF178D828E838FF0740812AD
:1002A200053674012DFAE43EFB8F048A828B838C1F
:1002B200F0740A12053674022DFDE43EFE8D828E24
:1002C200838FF0E402053674FD250A4011E50AC465
:1002D2002354E0FFE50A240FF9E7FE4FF59074037B
:1002E200B50A0CE50AC42354E0FF741F4FF590E5EC
:1002F2000A24FC501974F9250A4013E50AFFC423A5
:1003020054E0FEEF24FC2412F9E7FF4EF590050AB3
:100312007407B50A03750A0022E50924FC5001227C
:10032200E50975F003A490032C73020338020370ED
:100332000203A80203E0AE0B7F0075150A8F168E2A
:10034200828F831205FD75150F7516007517401201
:100352000082AE0B7F0075150A8F168E828F831274
:1003620005C7751512751600751740020082AE0C8E
:100372007F0075150A8F168E828F831205FD751503
:100382000F751600751740120082AE0C7F007515AE
:100392000A8F168E828F831205C775151275160085
:1003A200751740020082AE0D7F0075150A8F168EFA
:1003B200828F831205FD75150F7516007517401291
:1003C2000082AE0D7F0075150A8F168E828F831202
:1003D20005C7751512751600751740020082AE0E1C
:1003E2007F0075150A8F168E828F831205FD751593
:1003F2000F751600751740120082AE0E7F0075153C
:100402000A8F168E828F831205C775151275160014
:10041200751740020082C28CE58954F04401F589C7
:10042200758AEF758CD8D28CD2A9D2AF22C020C0E7
:10043200E0C0F0C082C083C007C006C005C004C0CF
:1004420003C002C001C000C0D075D000C28C758A42
:10045200EF758CD8D28CE508602B050B7464B50B54
:1004620021750B00050C743CB50C17750C00050DBD
:10047200743CB50D0D750D00050E7418B50E03759F
:100482000E0012031BD0D0D000D001D002D003D076
:1004920004D005D006D007D083D082D0F0D0E0D0EF
:1004A2002032AF827E00C3EE9F50030E80F822AF4F
:1004B20082758263C0071204A4D007DFF42220B041
:1004C2001E75901F75820A1204B130B0FD75820A42
:1004D2001204B1E508600575080080037508012063
:1004E200B11F75901F75820A1204B130B1FD758279
:1004F2000A1204B105097404B5090375090012034F
:100502001B20B21B75820A1204B1750B00750C0018
:10051200750D00750E0075820A1204B102031B22CA
:1005220012041812031B1204C075820A1204A412C8
:0405320002C980F288
:06004000E478FFF6D8FD94
:10001E007900E94400601B7A00900639780175A0DA
:10002E0000E493F2A308B8000205A0D9F4DAF27541
:02003E00A0FF21
:1005360020F71130F6138883A88220F509F6A883E0
:100546007583002280FEF280F5F022E515451660DF
:10055600467A01E51525E0F515E516334012F51640
:10056600E5829515E583951640030A80E6C3E516F0
:1005760013F516E51513F515C3E5829515F5F0E5A2
:100586008395164005F58385F082C3E51613F516A7
:08059600E51513F515DAE12269
:100046007800E84400600A790175A000E4F309D855
:10005600FC7800E84400600C7900900001E4F0A30D
:04006600D8FCD9FAEF
:10059E007A10E4FBFCE58225E0F582E58333F583F2
:1005AE00EB33FBEC33FCEB9515F5F0EC95164006B2
:0905BE00FCABF0438201DADD22FE
:0D001100758120120635E582600302000EA5
:1005C700C2D5E58330E70DD2D5E4C39582F582E441
:1005D7009583F583E51630E70BE4C39515F515E428
:1005E7009516F51612055130D50BE4C39582F582A1
:1005F700E49583F58322C2D5E58330E70DD2D5E4B0
:10060700C39582F582E49583F583E51630E70DB24D
:10061700D5E4C39515F515E49516F51612059E3024
:10062700D50BE4C39582F582E49583F58322758221
:0206370000229F
:00000001FF
