:0400000002001132B7
:03000B000203F5F8
:18006A00750800750900750A00750B00750C00750D00750E0002000EEE
:03000E0002047F6A
:20008200E582FF24F6500122EF2F2F900091730200AF0200E602011B0201520201890201EF
:2000A200BF0201F602022D02026402029BAD15AE16AF178D828E838FF0741F1204C4740181
:2000C2002DFAE43EFB8F048A828B838CF074111204C474022DFDE43EFE8D828E838FF0747F
:2000E2001F0204C4AD15AE16AF178D828E838FF0741F1204C474012DFAE43EFB8F048A8265
:200102008B838CF074021204C42DFDE43EFE8D828E838FF074040204C4AD15AE16AF178DFF
:20012200828E838FF074171204C474012DFAE43EFB8F048A828B838CF074151204C474028B
:200142002DFDE43EFE8D828E838FF0741B0204C4AD15AE16AF178D828E838FF0741F1204C7
:20016200C474012DFAE43EFB8F048A828B838CF074151204C474022DFDE43EFE8D828E8394
:200182008FF074150204C4AD15AE16AF178D828E838FF0741F1204C474012DFAE43EFB8FEB
:2001A200048A828B838CF074041204C4032DFDE43EFE8D828E838FF074070204C4AD15AEB0
:2001C20016AF178D828E838FF0741D1204C474012DFAE43EFB8F048A828B838CF0741512BA
:2001E20004C474022DFDE43EFE8D828E838FF074170204C4AD15AE16AF178D828E838FF096
:20020200741D1204C474012DFAE43EFB8F048A828B838CF074151204C474022DFDE43EFE6C
:200222008D828E838FF0741F0204C4AD15AE16AF178D828E838FF074031204C474012DFAE8
:20024200E43EFB8F048A828B838CF074051204C474022DFDE43EFE8D828E838FF074190215
:2002620004C4AD15AE16AF178D828E838FF0741F1204C474012DFAE43EFB8F048A828B83F6
:200282008CF074151204C474022DFDE43EFE8D828E838FF0741F0204C4AD15AE16AF178DE8
:2002A200828E838FF0741F1204C474012DFAE43EFB8F048A828B838CF074151204C4740202
:2002C2002DFDE43EFE8D828E838FF074170204C474FD250B4011E50BC42354E0FFE50B24CE
:2002E2000FF9E7FE4FF5907403B50B09E50BFFC42354E0F590E50B24FC5019E50B24F840A7
:2003020013E50BFFC42354E0FEEF24FC2412F9E7FF4EF590050B7407B50B03750B0022E4F5
:20032200B50A02800F7401B50A0280407402B50A02807122AE0C7F0075150A8F168E828F1A
:200342008312058B751512751600751740120082AE0C7F0075150A8F168E828F83120555EF
:2003620075150F751600751740020082AE0D7F0075150A8F168E828F8312058B75151275BF
:200382001600751740120082AE0D7F0075150A8F168E828F8312055575150F751600751734
:2003A20040020082AE0E7F0075150A8F168E828F8312058B751512751600751740120082B8
:2003C200AE0E7F0075150A8F168E828F8312055575150F751600751740020082C28CE589E9
:2003E20054F04401F589758AEF758CD8D28CD2A9D2AF22C28C758AEF758CD8D28C050932FE
:20040200AF827E00C3EE9F50030E80F822AF82758263C007120402D007DFF42220B01F7546
:20042200901F75820A12040F30B0FD75820A12040F050A7403B50A03750A0012032120B114
:200442001B75820A12040F750900750C00750D00750E0075820A12040F12032120B21D7595
:20046200901F75820A12040F30B2FD75820A12040FE508600475080022750801221203DE1D
:2004820012032112041E75820A12040F1202D2E50860F0749C250950EAE509249CF509057E
:2004A2000C743DB50C17750C00050D743DB50D0D750D00050E7418B50E03750E00120321F2
:0204C20080C1F7
:06004000E478FFF6D8FD94
:20001E007900E94400601B7A009005C7780175A000E493F2A308B8000205A0D9F4DAF275BC
:02003E00A0FF21
:1B04C40020F71130F6138883A88220F509F6A8837583002280FEF280F5F02237
:2004DF00E515451660467A01E51525E0F515E516334012F516E5829515E583951640030A82
:2004FF0080E6C3E51613F516E51513F515C3E5829515F5F0E58395164005F58385F082C341
:0D051F00E51613F516E51513F515DAE122C2
:200046007800E84400600A790175A000E4F309D8FC7800E84400600C7900900001E4F0A3B8
:04006600D8FCD9FAEF
:20052C007A10E4FBFCE58225E0F582E58333F583EB33FBEC33FCEB9515F5F0EC95164006C9
:09054C00FCABF0438201DADD2270
:0D0011007581171205C3E582600302000E21
:20055500C2D5E58330E70DD2D5E4C39582F582E49583F583E51630E70BE4C39515F515E4B7
:160575009516F5161204DF30D50BE4C39582F582E49583F58322EA
:20058B00C2D5E58330E70DD2D5E4C39582F582E49583F583E51630E70DB2D5E4C39515F5F1
:1805AB0015E49516F51612052C30D50BE4C39582F582E49583F583226B
:0405C300758200221B
:00000001FF
