:0400000002001132B7
:03000B0002042AC2
:18006A00750800750901750A00750B00750C00750D00750E0002000EED
:03000E0002051DCB
:20008200E582FF24F6500122EF2F2F900091730200AF0200E302011802014F0201840201FD
:2000A200B90201EF02022402025B02028FAD15AE16AF178D828E838FF0E4120531042DFA37
:2000C200E43EFB8F048A828B838CF0740E12053174022DFDE43EFE8D828E838FF0E40205C4
:2000E20031AD15AE16AF178D828E838FF0E4120531042DFAE43EFB8F048A828B838CF074D1
:200102001D12053174022DFDE43EFE8D828E838FF0741B020531AD15AE16AF178D828E83E6
:200122008FF0740812053174012DFAE43EFB8F048A828B838CF0740A12053174022DFDE44E
:200142003EFE8D828E838FF07404020531AD15AE16AF178D828E838FF0E4120531042DFAD0
:20016200E43EFB8F048A828B838CF0740A12053174022DFDE43EFE8D828E838FF0740A0292
:200182000531AD15AE16AF178D828E838FF0E4120531042DFAE43EFB8F048A828B838CF09F
:2001A200741B12053174022DFDE43EFE8D828E838FF07418020531AD15AE16AF178D828E5A
:2001C200838FF07402120531142DFAE43EFB8F048A828B838CF0740A12053174022DFDE492
:2001E2003EFE8D828E838FF07408020531AD15AE16AF178D828E838FF07402120531142D84
:20020200FAE43EFB8F048A828B838CF0740A12053174022DFDE43EFE8D828E838FF0E40291
:200222000531AD15AE16AF178D828E838FF0741C12053174012DFAE43EFB8F048A828B835D
:200242008CF0741A12053174022DFDE43EFE8D828E838FF07406020531AD15AE16AF178D60
:20026200828E838FF0E4120531042DFAE43EFB8F048A828B838CF0740A12053174022DFD67
:20028200E43EFE8D828E838FF0E4020531AD15AE16AF178D828E838FF0E4120531042DFA3F
:2002A200E43EFB8F048A828B838CF0740A12053174022DFDE43EFE8D828E838FF074080253
:2002C200053174FD250A4011E50AC42354E0FFE50A2412F9E7FE4FF5907403B50A0CE50AE4
:2002E200C42354E0FF741F4FF590E50A24FC501974F9250A4013E50AFFC42354E0FEEF24FA
:20030200FC240FF9E7FF4EF590050A7407B50A03750A0022E50924FC500122E50975F00336
:20032200A49003277302033302036B0203A30203DBAE0B7F0075150A8F168E828F83120510
:20034200F875150F751600751740120082AE0B7F0075150A8F168E828F831205C275151217
:20036200751600751740020082AE0C7F0075150A8F168E828F831205F875150F7516007564
:200382001740120082AE0C7F0075150A8F168E828F831205C275151275160075174002000E
:2003A20082AE0D7F0075150A8F168E828F831205F875150F751600751740120082AE0D7F57
:2003C2000075150A8F168E828F831205C2751512751600751740020082AE0E7F0075150AA1
:2003E2008F168E828F831205F875150F751600751740120082AE0E7F0075150A8F168E821D
:200402008F831205C2751512751600751740020082C28CE58954F04401F589758AEF758CC6
:20042200D8D28CD2A9D2AF22C020C0E0C0F0C082C083C007C006C005C004C003C002C00155
:20044200C000C0D075D000C28C758AEF758CD8D28CE508602B050B7464B50B21750B0005CC
:200462000C743CB50C17750C00050D743CB50D0D750D00050E7418B50E03750E001203163F
:20048200D0D0D000D001D002D003D004D005D006D007D083D082D0F0D0E0D02032AF827E38
:2004A20000C3EE9F50030E80F822AF82758263C00712049FD007DFF42220B21E75901F7593
:2004C200820A1204AC30B2FD75820A1204ACE5086005750800800375080120B31F75901F44
:2004E20075820A1204AC30B3FD75820A1204AC05097404B5090375090012031620B41B7540
:20050200820A1204AC750B00750C00750D00750E0075820A1204AC02031622120413120347
:0F052200161204BB75820A12049F1202C480F2E3
:06004000E478FFF6D8FD94
:20001E007900E94400601B7A00900634780175A000E493F2A308B8000205A0D9F4DAF2754E
:02003E00A0FF21
:1B05310020F71130F6138883A88220F509F6A8837583002280FEF280F5F022C9
:20054C00E515451660467A01E51525E0F515E516334012F516E5829515E583951640030A14
:20056C0080E6C3E51613F516E51513F515C3E5829515F5F0E58395164005F58385F082C3D3
:0D058C00E51613F516E51513F515DAE12255
:200046007800E84400600A790175A000E4F309D8FC7800E84400600C7900900001E4F0A3B8
:04006600D8FCD9FAEF
:200599007A10E4FBFCE58225E0F582E58333F583EB33FBEC33FCEB9515F5F0EC951640065C
:0905B900FCABF0438201DADD2203
:0D001100758120120630E582600302000EAA
:2005C200C2D5E58330E70DD2D5E4C39582F582E49583F583E51630E70BE4C39515F515E44A
:1605E2009516F51612054C30D50BE4C39582F582E49583F583220F
:2005F800C2D5E58330E70DD2D5E4C39582F582E49583F583E51630E70DB2D5E4C39515F584
:1806180015E49516F51612059930D50BE4C39582F582E49583F5832290
:0406300075820022AD
:00000001FF
