:030000000208B241
:0C08B200787FE4F6D8FD7581130208F988
:100A3C00011300010B00010F000110000112000155
:020A4C00110097
:0708000075F00A84FF7D0C76
:10080700EFB40A0040030208B1900817F8282873CC
:1008170002083502084002084B02085B020866021C
:1008270008710208770208870208970208A2A8053C
:10083700761FE804F87611806BA8057604E804F8BB
:1008470076028060A805761BE804F87615ED240289
:10085700F8761722A8057615E804F876158045A8D6
:10086700057607E804F87604803AA8057617800429
:10087700A805761FE804F87615ED2402F8761D2200
:10088700A8057619E804F87605ED2402F876032220
:10089700A805761FE804F876158009A8057617E8F5
:0B08A70004F87615ED2402F8761F22FD
:10093E00E4F590E50FC394004016E50F94035010B4
:10094E00E50FC43354E0FF740C250FF8E64FF59015
:10095E00E50FB40306C43354E0F590E50FD39403CA
:10096E004017E50FD394075010E50FC43354E0FF42
:10097E007404250FF8E64FF590050FE50FB4070345
:04098E00E4F50F225B
:1009D300E50B14601014601624027024E51012084D
:1009E30000E5108010E512120800E5128007E511FA
:1009F300120800E51175F00A84AFF07D08120807AC
:010A030022D0
:100A2500C28CE58954F04401F589758AEF758CD837
:070A3500D28CD2A9D2AF223E
:03000B00020A4F97
:0D0A4F00C28C758AEF758CD8D28C051332DD
:0A0A5C00E4FEEEC39F50030E80F885
:010A6600226D
:0A0A6700AD077F63120A5CDDF9227F
:100A040020B01DE4F5907F0A120A6730B0FD7F0A1A
:100A1400120A67050BE50BB40303E4F50B1209D3C3
:010A240022AF
:10099200120A251209D3120A047F0A120A5C1209EA
:1009A2003EE513C3946440EE749C2513F5130510C1
:1009B200E510B43D17E4F5100512E512B43D0D053E
:1009C20011E4F512E511B41803E4F5111209D3800C
:0109D200C55F
:1008BE00020992E493A3F8E493A34003F68001F2B5
:1008CE0008DFF48029E493A3F85407240CC8C3333B
:1008DE00C4540F4420C8834004F456800146F6DF0A
:1008EE00E4800B0102040810204080900A3CE47E54
:1008FE00019360BCA3FF543F30E509541FFEE493FF
:10090E00A360010ECF54C025E060A840B8E493A3C5
:10091E00FAE493A3F8E493A3C8C582C8CAC583CAF0
:10092E00F0A3C8C582C8CAC583CADFE9DEE780BEA8
:010A4E0000A7
:00000001FF
